{
  "contractName": "UbricoinToken",
  "abi": [
    {
      "constant": true,
      "inputs": [],
      "name": "totalSupply",
      "outputs": [
        {
          "name": "",
          "type": "uint256"
        }
      ],
      "payable": false,
      "stateMutability": "view",
      "type": "function"
    },
    {
      "inputs": [],
      "payable": false,
      "stateMutability": "nonpayable",
      "type": "constructor"
    }
  ],
  "bytecode": "0x608060405234801561001057600080fd5b50620f4240600081905550609e806100296000396000f300608060405260043610603f576000357c0100000000000000000000000000000000000000000000000000000000900463ffffffff16806318160ddd146044575b600080fd5b348015604f57600080fd5b506056606c565b6040518082815260200191505060405180910390f35b600054815600a165627a7a72305820fb3058dcc88b7a5abb955bfdf9dc0f2a6580074909f369c694546e8aceea626f0029",
  "source": "pragma solidity ^0.4.2;\n\ncontract UbricoinToken{\n\t//Constructor\n\t//Set the totall number of token \n\t//Read the total number of token\n\tuint256 public totalSupply;\n\tconstructor() public{\n\t\ttotalSupply = 1000000; \n\t}\n}",
  "sourcePath": "/home/kabi/token_sale/contracts/UbricoinToken.sol",
  "compiler": {
    "name": "solc",
    "version": "0.4.24+commit.e67f0147.Emscripten.clang"
  },
  "schemaVersion": "2.0.1",
  "updatedAt": "2018-10-01T10:00:48.641Z"
}